{
  "contractName": "TronSwapGateway",
  "abi": [
    {
      "inputs": [],
      "stateMutability": "nonpayable",
      "type": "constructor"
    },
    {
      "anonymous": false,
      "inputs": [
        {
          "indexed": true,
          "internalType": "uint256",
          "name": "depositId",
          "type": "uint256"
        },
        {
          "indexed": true,
          "internalType": "address",
          "name": "user",
          "type": "address"
        },
        {
          "indexed": true,
          "internalType": "address",
          "name": "token",
          "type": "address"
        },
        {
          "indexed": false,
          "internalType": "uint256",
          "name": "amount",
          "type": "uint256"
        },
        {
          "indexed": false,
          "internalType": "string",
          "name": "targetChain",
          "type": "string"
        },
        {
          "indexed": false,
          "internalType": "string",
          "name": "targetAddress",
          "type": "string"
        }
      ],
      "name": "Deposited",
      "type": "event"
    },
    {
      "anonymous": false,
      "inputs": [
        {
          "indexed": true,
          "internalType": "uint256",
          "name": "depositId",
          "type": "uint256"
        }
      ],
      "name": "MarkedProcessed",
      "type": "event"
    },
    {
      "inputs": [
        {
          "internalType": "address",
          "name": "token",
          "type": "address"
        },
        {
          "internalType": "uint256",
          "name": "amount",
          "type": "uint256"
        },
        {
          "internalType": "string",
          "name": "targetChain",
          "type": "string"
        },
        {
          "internalType": "string",
          "name": "targetAddress",
          "type": "string"
        }
      ],
      "name": "deposit",
      "outputs": [
        {
          "internalType": "uint256",
          "name": "depositId",
          "type": "uint256"
        }
      ],
      "stateMutability": "payable",
      "type": "function"
    },
    {
      "inputs": [
        {
          "internalType": "uint256",
          "name": "",
          "type": "uint256"
        }
      ],
      "name": "deposits",
      "outputs": [
        {
          "internalType": "address",
          "name": "user",
          "type": "address"
        },
        {
          "internalType": "address",
          "name": "token",
          "type": "address"
        },
        {
          "internalType": "uint256",
          "name": "amount",
          "type": "uint256"
        },
        {
          "internalType": "string",
          "name": "targetChain",
          "type": "string"
        },
        {
          "internalType": "string",
          "name": "targetAddress",
          "type": "string"
        },
        {
          "internalType": "bool",
          "name": "processed",
          "type": "bool"
        }
      ],
      "stateMutability": "view",
      "type": "function"
    },
    {
      "inputs": [
        {
          "internalType": "uint256",
          "name": "depositId",
          "type": "uint256"
        }
      ],
      "name": "markProcessed",
      "outputs": [],
      "stateMutability": "nonpayable",
      "type": "function"
    },
    {
      "inputs": [],
      "name": "nextDepositId",
      "outputs": [
        {
          "internalType": "uint256",
          "name": "",
          "type": "uint256"
        }
      ],
      "stateMutability": "view",
      "type": "function"
    },
    {
      "inputs": [],
      "name": "owner",
      "outputs": [
        {
          "internalType": "address",
          "name": "",
          "type": "address"
        }
      ],
      "stateMutability": "view",
      "type": "function"
    },
    {
      "inputs": [
        {
          "internalType": "address",
          "name": "token",
          "type": "address"
        },
        {
          "internalType": "address",
          "name": "to",
          "type": "address"
        },
        {
          "internalType": "uint256",
          "name": "amount",
          "type": "uint256"
        }
      ],
      "name": "withdraw",
      "outputs": [],
      "stateMutability": "nonpayable",
      "type": "function"
    }
  ],
  "bytecode": "0x608060405234801561000f575f80fd5b50d3801561001b575f80fd5b50d28015610027575f80fd5b50335f806101000a81548173ffffffffffffffffffffffffffffffffffffffff021916908373ffffffffffffffffffffffffffffffffffffffff1602179055506115b9806100745f395ff3fe608060405260043610610054575f3560e01c806319e5c034146100585780638070a4bd146100885780638da5cb5b146100ca578063b02c43d01461010c578063cce8ee9b14610165578063d9caed12146101a5575b5f80fd5b610072600480360381019061006d9190610bf8565b6101e5565b60405161007f9190610caa565b60405180910390f35b348015610093575f80fd5b50d3801561009f575f80fd5b50d280156100ab575f80fd5b506100b46105c6565b6040516100c19190610caa565b60405180910390f35b3480156100d5575f80fd5b50d380156100e1575f80fd5b50d280156100ed575f80fd5b506100f66105cc565b6040516101039190610cd2565b60405180910390f35b348015610117575f80fd5b50d38015610123575f80fd5b50d2801561012f575f80fd5b5061014a60048036038101906101459190610ceb565b6105ef565b60405161015c96959493929190610dba565b60405180910390f35b348015610170575f80fd5b50d3801561017c575f80fd5b50d28015610188575f80fd5b506101a3600480360381019061019e9190610ceb565b61077d565b005b3480156101b0575f80fd5b50d380156101bc575f80fd5b50d280156101c8575f80fd5b506101e360048036038101906101de9190610e27565b61094c565b005b5f8073ffffffffffffffffffffffffffffffffffffffff168773ffffffffffffffffffffffffffffffffffffffff1603610263575f341161025b576040517f08c379a000000000000000000000000000000000000000000000000000000000815260040161025290610ec1565b60405180910390fd5b349550610362565b5f86116102a5576040517f08c379a000000000000000000000000000000000000000000000000000000000815260040161029c90610f29565b60405180910390fd5b8673ffffffffffffffffffffffffffffffffffffffff166323b872dd3330896040518463ffffffff1660e01b81526004016102e293929190610f47565b6020604051808303815f875af11580156102fe573d5f803e3d5ffd5b505050506040513d601f19601f820116820180604052508101906103229190610fa6565b610361576040517f08c379a00000000000000000000000000000000000000000000000000000000081526004016103589061101b565b60405180910390fd5b5b60015f81548092919061037490611066565b9190505590506040518060c001604052803373ffffffffffffffffffffffffffffffffffffffff1681526020018873ffffffffffffffffffffffffffffffffffffffff16815260200187815260200186868080601f0160208091040260200160405190810160405280939291908181526020018383808284375f81840152601f19601f82011690508083019250505050505050815260200184848080601f0160208091040260200160405190810160405280939291908181526020018383808284375f81840152601f19601f8201169050808301925050505050505081526020015f151581525060025f8381526020019081526020015f205f820151815f015f6101000a81548173ffffffffffffffffffffffffffffffffffffffff021916908373ffffffffffffffffffffffffffffffffffffffff1602179055506020820151816001015f6101000a81548173ffffffffffffffffffffffffffffffffffffffff021916908373ffffffffffffffffffffffffffffffffffffffff16021790555060408201518160020155606082015181600301908161051591906112d4565b50608082015181600401908161052b91906112d4565b5060a0820151816005015f6101000a81548160ff0219169083151502179055509050508673ffffffffffffffffffffffffffffffffffffffff163373ffffffffffffffffffffffffffffffffffffffff16827f045a9016c00808dbfa6299ed5d158078ffc99d34a7c6b360bed74e72dcc7e1cf89898989896040516105b49594939291906113dd565b60405180910390a49695505050505050565b60015481565b5f8054906101000a900473ffffffffffffffffffffffffffffffffffffffff1681565b6002602052805f5260405f205f91509050805f015f9054906101000a900473ffffffffffffffffffffffffffffffffffffffff1690806001015f9054906101000a900473ffffffffffffffffffffffffffffffffffffffff169080600201549080600301805461065e90611107565b80601f016020809104026020016040519081016040528092919081815260200182805461068a90611107565b80156106d55780601f106106ac576101008083540402835291602001916106d5565b820191905f5260205f20905b8154815290600101906020018083116106b857829003601f168201915b5050505050908060040180546106ea90611107565b80601f016020809104026020016040519081016040528092919081815260200182805461071690611107565b80156107615780601f1061073857610100808354040283529160200191610761565b820191905f5260205f20905b81548152906001019060200180831161074457829003601f168201915b505050505090806005015f9054906101000a900460ff16905086565b5f8054906101000a900473ffffffffffffffffffffffffffffffffffffffff1673ffffffffffffffffffffffffffffffffffffffff163373ffffffffffffffffffffffffffffffffffffffff161461080a576040517f08c379a00000000000000000000000000000000000000000000000000000000081526004016108019061146e565b60405180910390fd5b5f60025f8381526020019081526020015f2090505f73ffffffffffffffffffffffffffffffffffffffff16815f015f9054906101000a900473ffffffffffffffffffffffffffffffffffffffff1673ffffffffffffffffffffffffffffffffffffffff16036108ae576040517f08c379a00000000000000000000000000000000000000000000000000000000081526004016108a5906114d6565b60405180910390fd5b806005015f9054906101000a900460ff16156108ff576040517f08c379a00000000000000000000000000000000000000000000000000000000081526004016108f69061153e565b60405180910390fd5b6001816005015f6101000a81548160ff021916908315150217905550817f8835d2ef07654719ea228a242bbf2992a4db8306329ad3f52dc671775e3435af60405160405180910390a25050565b5f8054906101000a900473ffffffffffffffffffffffffffffffffffffffff1673ffffffffffffffffffffffffffffffffffffffff163373ffffffffffffffffffffffffffffffffffffffff16146109d9576040517f08c379a00000000000000000000000000000000000000000000000000000000081526004016109d09061146e565b60405180910390fd5b5f73ffffffffffffffffffffffffffffffffffffffff168373ffffffffffffffffffffffffffffffffffffffff1603610a55578173ffffffffffffffffffffffffffffffffffffffff166108fc8290811502906040515f60405180830381858888f19350505050158015610a4f573d5f803e3d5ffd5b50610ad2565b8273ffffffffffffffffffffffffffffffffffffffff1663a9059cbb83836040518363ffffffff1660e01b8152600401610a9092919061155c565b6020604051808303815f875af1158015610aac573d5f803e3d5ffd5b505050506040513d601f19601f82011682018060405250810190610ad09190610fa6565b505b505050565b5f80fd5b5f80fd5b5f74ffffffffffffffffffffffffffffffffffffffffff82169050919050565b610b0881610adf565b8114610b12575f80fd5b50565b5f73ffffffffffffffffffffffffffffffffffffffff82169050919050565b5f610b3e82610b15565b9050919050565b5f81359050610b5381610aff565b610b5c81610b34565b905092915050565b5f819050919050565b610b7681610b64565b8114610b80575f80fd5b50565b5f81359050610b9181610b6d565b92915050565b5f80fd5b5f80fd5b5f80fd5b5f8083601f840112610bb857610bb7610b97565b5b8235905067ffffffffffffffff811115610bd557610bd4610b9b565b5b602083019150836001820283011115610bf157610bf0610b9f565b5b9250929050565b5f805f805f8060808789031215610c1257610c11610ad7565b5b5f610c1f89828a01610b45565b9650506020610c3089828a01610b83565b955050604087013567ffffffffffffffff811115610c5157610c50610adb565b5b610c5d89828a01610ba3565b9450945050606087013567ffffffffffffffff811115610c8057610c7f610adb565b5b610c8c89828a01610ba3565b92509250509295509295509295565b610ca481610b64565b82525050565b5f602082019050610cbd5f830184610c9b565b92915050565b610ccc81610b34565b82525050565b5f602082019050610ce55f830184610cc3565b92915050565b5f60208284031215610d0057610cff610ad7565b5b5f610d0d84828501610b83565b91505092915050565b5f81519050919050565b5f82825260208201905092915050565b5f5b83811015610d4d578082015181840152602081019050610d32565b5f8484015250505050565b5f601f19601f8301169050919050565b5f610d7282610d16565b610d7c8185610d20565b9350610d8c818560208601610d30565b610d9581610d58565b840191505092915050565b5f8115159050919050565b610db481610da0565b82525050565b5f60c082019050610dcd5f830189610cc3565b610dda6020830188610cc3565b610de76040830187610c9b565b8181036060830152610df98186610d68565b90508181036080830152610e0d8185610d68565b9050610e1c60a0830184610dab565b979650505050505050565b5f805f60608486031215610e3e57610e3d610ad7565b5b5f610e4b86828701610b45565b9350506020610e5c86828701610b45565b9250506040610e6d86828701610b83565b9150509250925092565b7f6e617469766520616d6f756e743d3000000000000000000000000000000000005f82015250565b5f610eab600f83610d20565b9150610eb682610e77565b602082019050919050565b5f6020820190508181035f830152610ed881610e9f565b9050919050565b7f746f6b656e20616d6f756e743d300000000000000000000000000000000000005f82015250565b5f610f13600e83610d20565b9150610f1e82610edf565b602082019050919050565b5f6020820190508181035f830152610f4081610f07565b9050919050565b5f606082019050610f5a5f830186610cc3565b610f676020830185610cc3565b610f746040830184610c9b565b949350505050565b610f8581610da0565b8114610f8f575f80fd5b50565b5f81519050610fa081610f7c565b92915050565b5f60208284031215610fbb57610fba610ad7565b5b5f610fc884828501610f92565b91505092915050565b7f7472616e73666572206661696c656400000000000000000000000000000000005f82015250565b5f611005600f83610d20565b915061101082610fd1565b602082019050919050565b5f6020820190508181035f83015261103281610ff9565b9050919050565b7f4e487b71000000000000000000000000000000000000000000000000000000005f52601160045260245ffd5b5f61107082610b64565b91507fffffffffffffffffffffffffffffffffffffffffffffffffffffffffffffffff82036110a2576110a1611039565b5b600182019050919050565b7f4e487b71000000000000000000000000000000000000000000000000000000005f52604160045260245ffd5b7f4e487b71000000000000000000000000000000000000000000000000000000005f52602260045260245ffd5b5f600282049050600182168061111e57607f821691505b602082108103611131576111306110da565b5b50919050565b5f819050815f5260205f209050919050565b5f6020601f8301049050919050565b5f82821b905092915050565b5f600883026111937fffffffffffffffffffffffffffffffffffffffffffffffffffffffffffffffff82611158565b61119d8683611158565b95508019841693508086168417925050509392505050565b5f819050919050565b5f6111d86111d36111ce84610b64565b6111b5565b610b64565b9050919050565b5f819050919050565b6111f1836111be565b6112056111fd826111df565b848454611164565b825550505050565b5f90565b61121961120d565b6112248184846111e8565b505050565b5b818110156112475761123c5f82611211565b60018101905061122a565b5050565b601f82111561128c5761125d81611137565b61126684611149565b81016020851015611275578190505b61128961128185611149565b830182611229565b50505b505050565b5f82821c905092915050565b5f6112ac5f1984600802611291565b1980831691505092915050565b5f6112c4838361129d565b9150826002028217905092915050565b6112dd82610d16565b67ffffffffffffffff8111156112f6576112f56110ad565b5b6113008254611107565b61130b82828561124b565b5f60209050601f83116001811461133c575f841561132a578287015190505b61133485826112b9565b86555061139b565b601f19841661134a86611137565b5f5b828110156113715784890151825560018201915060208501945060208101905061134c565b8683101561138e578489015161138a601f89168261129d565b8355505b6001600288020188555050505b505050505050565b828183375f83830152505050565b5f6113bc8385610d20565b93506113c98385846113a3565b6113d283610d58565b840190509392505050565b5f6060820190506113f05f830188610c9b565b81810360208301526114038186886113b1565b905081810360408301526114188184866113b1565b90509695505050505050565b7f6e6f74206f776e657200000000000000000000000000000000000000000000005f82015250565b5f611458600983610d20565b915061146382611424565b602082019050919050565b5f6020820190508181035f8301526114858161144c565b9050919050565b7f6e6f7420666f756e6400000000000000000000000000000000000000000000005f82015250565b5f6114c0600983610d20565b91506114cb8261148c565b602082019050919050565b5f6020820190508181035f8301526114ed816114b4565b9050919050565b7f616c72656164792070726f6365737365640000000000000000000000000000005f82015250565b5f611528601183610d20565b9150611533826114f4565b602082019050919050565b5f6020820190508181035f8301526115558161151c565b9050919050565b5f60408201905061156f5f830185610cc3565b61157c6020830184610c9b565b939250505056fea26474726f6e58221220f947d3a3f9077a762ea8d12450f87f835848a3f7c6fe5f7b3c4ba17db6ecfe8264736f6c63430008140033",
  "source": "// SPDX-License-Identifier: MIT\npragma solidity ^0.8.20;\n\ninterface ITRC20 {\n    function transferFrom(address sender, address recipient, uint256 amount) external returns (bool);\n    function transfer(address recipient, uint256 amount) external returns (bool);\n}\n\ncontract TronSwapGateway {\n    address public owner;\n    uint256 public nextDepositId;\n\n    struct Deposit {\n        address user;\n        address token; // Address(0) for Native TRX\n        uint256 amount;\n        string targetChain;\n        string targetAddress;\n        bool processed;\n    }\n\n    mapping(uint256 => Deposit) public deposits;\n\n    event Deposited(\n        uint256 indexed depositId,\n        address indexed user,\n        address indexed token,\n        uint256 amount,\n        string targetChain,\n        string targetAddress\n    );\n\n    event MarkedProcessed(uint256 indexed depositId);\n\n    modifier onlyOwner() {\n        require(msg.sender == owner, \"not owner\");\n        _;\n    }\n\n    constructor() {\n        owner = msg.sender;\n    }\n\n    function deposit(\n        address token,\n        uint256 amount,\n        string calldata targetChain,\n        string calldata targetAddress\n    ) external payable returns (uint256 depositId) {\n        if (token == address(0)) {\n            require(msg.value > 0, \"native amount=0\");\n            amount = msg.value;\n        } else {\n            require(amount > 0, \"token amount=0\");\n            require(ITRC20(token).transferFrom(msg.sender, address(this), amount), \"transfer failed\");\n        }\n\n        depositId = nextDepositId++;\n        deposits[depositId] = Deposit({\n            user: msg.sender,\n            token: token,\n            amount: amount,\n            targetChain: targetChain,\n            targetAddress: targetAddress,\n            processed: false\n        });\n\n        emit Deposited(\n            depositId,\n            msg.sender,\n            token,\n            amount,\n            targetChain,\n            targetAddress\n        );\n    }\n\n    function markProcessed(uint256 depositId) external onlyOwner {\n        Deposit storage d = deposits[depositId];\n        require(d.user != address(0), \"not found\");\n        require(!d.processed, \"already processed\");\n        d.processed = true;\n        emit MarkedProcessed(depositId);\n    }\n\n    function withdraw(address token, address to, uint256 amount) external onlyOwner {\n        if (token == address(0)) {\n            payable(to).transfer(amount);\n        } else {\n            ITRC20(token).transfer(to, amount);\n        }\n    }\n}\n",
  "sourcePath": "/Users/ygpark2/pjt/blockchain/uniswap/contracts/tron/contracts/TronSwapGateway.sol",
  "compiler": {
    "name": "solc",
    "version": "0.8.20+commit.5f1834bc.Emscripten.clang"
  },
  "schemaVersion": "2.0.1",
  "updatedAt": "2026-04-01T02:42:25.203Z"
}