{
  "_format": "hh-sol-artifact-1",
  "contractName": "EvmSwapGateway",
  "sourceName": "contracts/EvmSwapGateway.sol",
  "abi": [
    {
      "inputs": [],
      "stateMutability": "nonpayable",
      "type": "constructor"
    },
    {
      "anonymous": false,
      "inputs": [
        {
          "indexed": true,
          "internalType": "uint256",
          "name": "depositId",
          "type": "uint256"
        },
        {
          "indexed": true,
          "internalType": "address",
          "name": "user",
          "type": "address"
        },
        {
          "indexed": true,
          "internalType": "address",
          "name": "token",
          "type": "address"
        },
        {
          "indexed": false,
          "internalType": "uint256",
          "name": "amount",
          "type": "uint256"
        },
        {
          "indexed": false,
          "internalType": "string",
          "name": "targetChain",
          "type": "string"
        },
        {
          "indexed": false,
          "internalType": "string",
          "name": "targetAddress",
          "type": "string"
        }
      ],
      "name": "Deposited",
      "type": "event"
    },
    {
      "anonymous": false,
      "inputs": [
        {
          "indexed": true,
          "internalType": "uint256",
          "name": "depositId",
          "type": "uint256"
        }
      ],
      "name": "MarkedProcessed",
      "type": "event"
    },
    {
      "inputs": [
        {
          "internalType": "address",
          "name": "token",
          "type": "address"
        },
        {
          "internalType": "uint256",
          "name": "amount",
          "type": "uint256"
        },
        {
          "internalType": "string",
          "name": "targetChain",
          "type": "string"
        },
        {
          "internalType": "string",
          "name": "targetAddress",
          "type": "string"
        }
      ],
      "name": "deposit",
      "outputs": [
        {
          "internalType": "uint256",
          "name": "depositId",
          "type": "uint256"
        }
      ],
      "stateMutability": "payable",
      "type": "function"
    },
    {
      "inputs": [
        {
          "internalType": "uint256",
          "name": "",
          "type": "uint256"
        }
      ],
      "name": "deposits",
      "outputs": [
        {
          "internalType": "address",
          "name": "user",
          "type": "address"
        },
        {
          "internalType": "address",
          "name": "token",
          "type": "address"
        },
        {
          "internalType": "uint256",
          "name": "amount",
          "type": "uint256"
        },
        {
          "internalType": "string",
          "name": "targetChain",
          "type": "string"
        },
        {
          "internalType": "string",
          "name": "targetAddress",
          "type": "string"
        },
        {
          "internalType": "bool",
          "name": "processed",
          "type": "bool"
        }
      ],
      "stateMutability": "view",
      "type": "function"
    },
    {
      "inputs": [
        {
          "internalType": "uint256",
          "name": "depositId",
          "type": "uint256"
        }
      ],
      "name": "markProcessed",
      "outputs": [],
      "stateMutability": "nonpayable",
      "type": "function"
    },
    {
      "inputs": [],
      "name": "nextDepositId",
      "outputs": [
        {
          "internalType": "uint256",
          "name": "",
          "type": "uint256"
        }
      ],
      "stateMutability": "view",
      "type": "function"
    },
    {
      "inputs": [],
      "name": "owner",
      "outputs": [
        {
          "internalType": "address",
          "name": "",
          "type": "address"
        }
      ],
      "stateMutability": "view",
      "type": "function"
    },
    {
      "inputs": [
        {
          "internalType": "address",
          "name": "token",
          "type": "address"
        },
        {
          "internalType": "address",
          "name": "to",
          "type": "address"
        },
        {
          "internalType": "uint256",
          "name": "amount",
          "type": "uint256"
        }
      ],
      "name": "withdraw",
      "outputs": [],
      "stateMutability": "nonpayable",
      "type": "function"
    }
  ],
  "bytecode": "0x608060405234801561001057600080fd5b50336000806101000a81548173ffffffffffffffffffffffffffffffffffffffff021916908373ffffffffffffffffffffffffffffffffffffffff1602179055506115ac806100606000396000f3fe6080604052600436106100555760003560e01c806319e5c0341461005a5780638070a4bd1461008a5780638da5cb5b146100b5578063b02c43d0146100e0578063cce8ee9b14610122578063d9caed121461014b575b600080fd5b610074600480360381019061006f9190610b97565b610174565b6040516100819190610c4d565b60405180910390f35b34801561009657600080fd5b5061009f610566565b6040516100ac9190610c4d565b60405180910390f35b3480156100c157600080fd5b506100ca61056c565b6040516100d79190610c77565b60405180910390f35b3480156100ec57600080fd5b5061010760048036038101906101029190610c92565b610590565b60405161011996959493929190610d6a565b60405180910390f35b34801561012e57600080fd5b5061014960048036038101906101449190610c92565b610729565b005b34801561015757600080fd5b50610172600480360381019061016d9190610dd9565b610901565b005b60008073ffffffffffffffffffffffffffffffffffffffff168773ffffffffffffffffffffffffffffffffffffffff16036101f457600034116101ec576040517f08c379a00000000000000000000000000000000000000000000000000000000081526004016101e390610e78565b60405180910390fd5b3495506102f7565b60008611610237576040517f08c379a000000000000000000000000000000000000000000000000000000000815260040161022e90610ee4565b60405180910390fd5b8673ffffffffffffffffffffffffffffffffffffffff166323b872dd3330896040518463ffffffff1660e01b815260040161027493929190610f04565b6020604051808303816000875af1158015610293573d6000803e3d6000fd5b505050506040513d601f19601f820116820180604052508101906102b79190610f67565b6102f6576040517f08c379a00000000000000000000000000000000000000000000000000000000081526004016102ed90610fe0565b60405180910390fd5b5b6001600081548092919061030a9061102f565b9190505590506040518060c001604052803373ffffffffffffffffffffffffffffffffffffffff1681526020018873ffffffffffffffffffffffffffffffffffffffff16815260200187815260200186868080601f016020809104026020016040519081016040528093929190818152602001838380828437600081840152601f19601f82011690508083019250505050505050815260200184848080601f016020809104026020016040519081016040528093929190818152602001838380828437600081840152601f19601f820116905080830192505050505050508152602001600015158152506002600083815260200190815260200160002060008201518160000160006101000a81548173ffffffffffffffffffffffffffffffffffffffff021916908373ffffffffffffffffffffffffffffffffffffffff16021790555060208201518160010160006101000a81548173ffffffffffffffffffffffffffffffffffffffff021916908373ffffffffffffffffffffffffffffffffffffffff1602179055506040820151816002015560608201518160030190816104b491906112b2565b5060808201518160040190816104ca91906112b2565b5060a08201518160050160006101000a81548160ff0219169083151502179055509050508673ffffffffffffffffffffffffffffffffffffffff163373ffffffffffffffffffffffffffffffffffffffff16827f045a9016c00808dbfa6299ed5d158078ffc99d34a7c6b360bed74e72dcc7e1cf89898989896040516105549594939291906113c0565b60405180910390a49695505050505050565b60015481565b60008054906101000a900473ffffffffffffffffffffffffffffffffffffffff1681565b60026020528060005260406000206000915090508060000160009054906101000a900473ffffffffffffffffffffffffffffffffffffffff16908060010160009054906101000a900473ffffffffffffffffffffffffffffffffffffffff1690806002015490806003018054610605906110d5565b80601f0160208091040260200160405190810160405280929190818152602001828054610631906110d5565b801561067e5780601f106106535761010080835404028352916020019161067e565b820191906000526020600020905b81548152906001019060200180831161066157829003601f168201915b505050505090806004018054610693906110d5565b80601f01602080910402602001604051908101604052809291908181526020018280546106bf906110d5565b801561070c5780601f106106e15761010080835404028352916020019161070c565b820191906000526020600020905b8154815290600101906020018083116106ef57829003601f168201915b5050505050908060050160009054906101000a900460ff16905086565b60008054906101000a900473ffffffffffffffffffffffffffffffffffffffff1673ffffffffffffffffffffffffffffffffffffffff163373ffffffffffffffffffffffffffffffffffffffff16146107b7576040517f08c379a00000000000000000000000000000000000000000000000000000000081526004016107ae90611455565b60405180910390fd5b6000600260008381526020019081526020016000209050600073ffffffffffffffffffffffffffffffffffffffff168160000160009054906101000a900473ffffffffffffffffffffffffffffffffffffffff1673ffffffffffffffffffffffffffffffffffffffff1603610861576040517f08c379a0000000000000000000000000000000000000000000000000000000008152600401610858906114c1565b60405180910390fd5b8060050160009054906101000a900460ff16156108b3576040517f08c379a00000000000000000000000000000000000000000000000000000000081526004016108aa9061152d565b60405180910390fd5b60018160050160006101000a81548160ff021916908315150217905550817f8835d2ef07654719ea228a242bbf2992a4db8306329ad3f52dc671775e3435af60405160405180910390a25050565b60008054906101000a900473ffffffffffffffffffffffffffffffffffffffff1673ffffffffffffffffffffffffffffffffffffffff163373ffffffffffffffffffffffffffffffffffffffff161461098f576040517f08c379a000000000000000000000000000000000000000000000000000000000815260040161098690611455565b60405180910390fd5b600073ffffffffffffffffffffffffffffffffffffffff168373ffffffffffffffffffffffffffffffffffffffff1603610a0f578173ffffffffffffffffffffffffffffffffffffffff166108fc829081150290604051600060405180830381858888f19350505050158015610a09573d6000803e3d6000fd5b50610a8f565b8273ffffffffffffffffffffffffffffffffffffffff1663a9059cbb83836040518363ffffffff1660e01b8152600401610a4a92919061154d565b6020604051808303816000875af1158015610a69573d6000803e3d6000fd5b505050506040513d601f19601f82011682018060405250810190610a8d9190610f67565b505b505050565b600080fd5b600080fd5b600073ffffffffffffffffffffffffffffffffffffffff82169050919050565b6000610ac982610a9e565b9050919050565b610ad981610abe565b8114610ae457600080fd5b50565b600081359050610af681610ad0565b92915050565b6000819050919050565b610b0f81610afc565b8114610b1a57600080fd5b50565b600081359050610b2c81610b06565b92915050565b600080fd5b600080fd5b600080fd5b60008083601f840112610b5757610b56610b32565b5b8235905067ffffffffffffffff811115610b7457610b73610b37565b5b602083019150836001820283011115610b9057610b8f610b3c565b5b9250929050565b60008060008060008060808789031215610bb457610bb3610a94565b5b6000610bc289828a01610ae7565b9650506020610bd389828a01610b1d565b955050604087013567ffffffffffffffff811115610bf457610bf3610a99565b5b610c0089828a01610b41565b9450945050606087013567ffffffffffffffff811115610c2357610c22610a99565b5b610c2f89828a01610b41565b92509250509295509295509295565b610c4781610afc565b82525050565b6000602082019050610c626000830184610c3e565b92915050565b610c7181610abe565b82525050565b6000602082019050610c8c6000830184610c68565b92915050565b600060208284031215610ca857610ca7610a94565b5b6000610cb684828501610b1d565b91505092915050565b600081519050919050565b600082825260208201905092915050565b60005b83811015610cf9578082015181840152602081019050610cde565b60008484015250505050565b6000601f19601f8301169050919050565b6000610d2182610cbf565b610d2b8185610cca565b9350610d3b818560208601610cdb565b610d4481610d05565b840191505092915050565b60008115159050919050565b610d6481610d4f565b82525050565b600060c082019050610d7f6000830189610c68565b610d8c6020830188610c68565b610d996040830187610c3e565b8181036060830152610dab8186610d16565b90508181036080830152610dbf8185610d16565b9050610dce60a0830184610d5b565b979650505050505050565b600080600060608486031215610df257610df1610a94565b5b6000610e0086828701610ae7565b9350506020610e1186828701610ae7565b9250506040610e2286828701610b1d565b9150509250925092565b7f6e617469766520616d6f756e743d300000000000000000000000000000000000600082015250565b6000610e62600f83610cca565b9150610e6d82610e2c565b602082019050919050565b60006020820190508181036000830152610e9181610e55565b9050919050565b7f746f6b656e20616d6f756e743d30000000000000000000000000000000000000600082015250565b6000610ece600e83610cca565b9150610ed982610e98565b602082019050919050565b60006020820190508181036000830152610efd81610ec1565b9050919050565b6000606082019050610f196000830186610c68565b610f266020830185610c68565b610f336040830184610c3e565b949350505050565b610f4481610d4f565b8114610f4f57600080fd5b50565b600081519050610f6181610f3b565b92915050565b600060208284031215610f7d57610f7c610a94565b5b6000610f8b84828501610f52565b91505092915050565b7f7472616e73666572206661696c65640000000000000000000000000000000000600082015250565b6000610fca600f83610cca565b9150610fd582610f94565b602082019050919050565b60006020820190508181036000830152610ff981610fbd565b9050919050565b7f4e487b7100000000000000000000000000000000000000000000000000000000600052601160045260246000fd5b600061103a82610afc565b91507fffffffffffffffffffffffffffffffffffffffffffffffffffffffffffffffff820361106c5761106b611000565b5b600182019050919050565b7f4e487b7100000000000000000000000000000000000000000000000000000000600052604160045260246000fd5b7f4e487b7100000000000000000000000000000000000000000000000000000000600052602260045260246000fd5b600060028204905060018216806110ed57607f821691505b602082108103611100576110ff6110a6565b5b50919050565b60008190508160005260206000209050919050565b60006020601f8301049050919050565b600082821b905092915050565b6000600883026111687fffffffffffffffffffffffffffffffffffffffffffffffffffffffffffffffff8261112b565b611172868361112b565b95508019841693508086168417925050509392505050565b6000819050919050565b60006111af6111aa6111a584610afc565b61118a565b610afc565b9050919050565b6000819050919050565b6111c983611194565b6111dd6111d5826111b6565b848454611138565b825550505050565b600090565b6111f26111e5565b6111fd8184846111c0565b505050565b5b81811015611221576112166000826111ea565b600181019050611203565b5050565b601f8211156112665761123781611106565b6112408461111b565b8101602085101561124f578190505b61126361125b8561111b565b830182611202565b50505b505050565b600082821c905092915050565b60006112896000198460080261126b565b1980831691505092915050565b60006112a28383611278565b9150826002028217905092915050565b6112bb82610cbf565b67ffffffffffffffff8111156112d4576112d3611077565b5b6112de82546110d5565b6112e9828285611225565b600060209050601f83116001811461131c576000841561130a578287015190505b6113148582611296565b86555061137c565b601f19841661132a86611106565b60005b828110156113525784890151825560018201915060208501945060208101905061132d565b8683101561136f578489015161136b601f891682611278565b8355505b6001600288020188555050505b505050505050565b82818337600083830152505050565b600061139f8385610cca565b93506113ac838584611384565b6113b583610d05565b840190509392505050565b60006060820190506113d56000830188610c3e565b81810360208301526113e8818688611393565b905081810360408301526113fd818486611393565b90509695505050505050565b7f6e6f74206f776e65720000000000000000000000000000000000000000000000600082015250565b600061143f600983610cca565b915061144a82611409565b602082019050919050565b6000602082019050818103600083015261146e81611432565b9050919050565b7f6e6f7420666f756e640000000000000000000000000000000000000000000000600082015250565b60006114ab600983610cca565b91506114b682611475565b602082019050919050565b600060208201905081810360008301526114da8161149e565b9050919050565b7f616c72656164792070726f636573736564000000000000000000000000000000600082015250565b6000611517601183610cca565b9150611522826114e1565b602082019050919050565b600060208201905081810360008301526115468161150a565b9050919050565b60006040820190506115626000830185610c68565b61156f6020830184610c3e565b939250505056fea26469706673582212208d89cf97c5e4b88dd5cc6aad800394d1ab2a07a2bde8b6668041e542be4ff43764736f6c63430008140033",
  "linkReferences": {},
  "deployedLinkReferences": {}
}